{
  "contractName": "Lottery",
  "abi": [
    {
      "inputs": [],
      "name": "Forbidden",
      "type": "error"
    },
    {
      "inputs": [
        {
          "internalType": "uint256",
          "name": "expectedRole",
          "type": "uint256"
        },
        {
          "internalType": "uint256",
          "name": "actualRole",
          "type": "uint256"
        }
      ],
      "name": "WrongTicketPrice",
      "type": "error"
    },
    {
      "inputs": [],
      "name": "burnAddress",
      "outputs": [
        {
          "internalType": "address payable",
          "name": "",
          "type": "address"
        }
      ],
      "stateMutability": "view",
      "type": "function",
      "constant": true
    },
    {
      "inputs": [
        {
          "internalType": "uint256",
          "name": "",
          "type": "uint256"
        }
      ],
      "name": "participantAddresses",
      "outputs": [
        {
          "internalType": "address",
          "name": "",
          "type": "address"
        }
      ],
      "stateMutability": "view",
      "type": "function",
      "constant": true
    },
    {
      "inputs": [],
      "name": "ticketPrice",
      "outputs": [
        {
          "internalType": "uint256",
          "name": "",
          "type": "uint256"
        }
      ],
      "stateMutability": "view",
      "type": "function",
      "constant": true
    },
    {
      "inputs": [],
      "name": "ticketsPerRound",
      "outputs": [
        {
          "internalType": "uint256",
          "name": "",
          "type": "uint256"
        }
      ],
      "stateMutability": "view",
      "type": "function",
      "constant": true
    },
    {
      "inputs": [],
      "name": "buyTicket",
      "outputs": [],
      "stateMutability": "payable",
      "type": "function",
      "payable": true
    },
    {
      "inputs": [],
      "name": "getBalance",
      "outputs": [
        {
          "internalType": "uint256",
          "name": "",
          "type": "uint256"
        }
      ],
      "stateMutability": "view",
      "type": "function",
      "constant": true
    },
    {
      "inputs": [],
      "name": "getParticipantAddresses",
      "outputs": [
        {
          "internalType": "address[]",
          "name": "",
          "type": "address[]"
        }
      ],
      "stateMutability": "view",
      "type": "function",
      "constant": true
    },
    {
      "inputs": [],
      "name": "getWinnableBalance",
      "outputs": [
        {
          "internalType": "uint256",
          "name": "",
          "type": "uint256"
        }
      ],
      "stateMutability": "view",
      "type": "function",
      "constant": true
    },
    {
      "inputs": [],
      "name": "payWinner",
      "outputs": [],
      "stateMutability": "nonpayable",
      "type": "function"
    }
  ],
  "bytecode": "0x608060405260008060006101000a81548173ffffffffffffffffffffffffffffffffffffffff021916908373ffffffffffffffffffffffffffffffffffffffff160217905550600360015566038d7ea4c6800060025534801561006157600080fd5b50610a8f806100716000396000f3fe6080604052600436106100865760003560e01c80636e7687c2116100595780636e7687c21461014957806370d5ae0514610174578063a7d136a81461019f578063be71248a146101ca578063edca914c146101e157610086565b806312065fe01461008b5780631209b1f6146100b65780633eadd2e6146100e157806354ffbddb1461010c575b600080fd5b34801561009757600080fd5b506100a06101eb565b6040516100ad9190610607565b60405180910390f35b3480156100c257600080fd5b506100cb6101f3565b6040516100d89190610607565b60405180910390f35b3480156100ed57600080fd5b506100f66101f9565b6040516101039190610607565b60405180910390f35b34801561011857600080fd5b50610133600480360381019061012e9190610653565b61020d565b60405161014091906106c1565b60405180910390f35b34801561015557600080fd5b5061015e61024c565b60405161016b9190610607565b60405180910390f35b34801561018057600080fd5b50610189610252565b60405161019691906106fd565b60405180910390f35b3480156101ab57600080fd5b506101b4610276565b6040516101c191906107d6565b60405180910390f35b3480156101d657600080fd5b506101df610304565b005b6101e96103d4565b005b600047905090565b60025481565b60006002476102089190610827565b905090565b6003818154811061021d57600080fd5b906000526020600020016000915054906101000a900473ffffffffffffffffffffffffffffffffffffffff1681565b60015481565b60008054906101000a900473ffffffffffffffffffffffffffffffffffffffff1681565b606060038054806020026020016040519081016040528092919081815260200182805480156102fa57602002820191906000526020600020905b8160009054906101000a900473ffffffffffffffffffffffffffffffffffffffff1673ffffffffffffffffffffffffffffffffffffffff16815260200190600101908083116102b0575b5050505050905090565b3073ffffffffffffffffffffffffffffffffffffffff163373ffffffffffffffffffffffffffffffffffffffff1614610369576040517fee90c46800000000000000000000000000000000000000000000000000000000815260040160405180910390fd5b60006103736101f9565b9050600061037f61049a565b90508073ffffffffffffffffffffffffffffffffffffffff166108fc839081150290604051600060405180830381858888f193505050501580156103c7573d6000803e3d6000fd5b506103d0610529565b5050565b600254341461041e57600254346040517ff00aa53e000000000000000000000000000000000000000000000000000000008152600401610415929190610858565b60405180910390fd5b6003339080600181540180825580915050600190039060005260206000200160009091909190916101000a81548173ffffffffffffffffffffffffffffffffffffffff021916908373ffffffffffffffffffffffffffffffffffffffff1602179055506001546003805490501061049857610497610304565b5b565b600080444260036040516020016104b3939291906109c0565b6040516020818303038152906040528051906020012060001c90506000600380549050826104e191906109f9565b9050600381815481106104f7576104f6610a2a565b5b9060005260206000200160009054906101000a900473ffffffffffffffffffffffffffffffffffffffff169250505090565b600047905060008054906101000a900473ffffffffffffffffffffffffffffffffffffffff1673ffffffffffffffffffffffffffffffffffffffff166108fc829081150290604051600060405180830381858888f19350505050158015610594573d6000803e3d6000fd5b5061059d6105a0565b50565b600360006105ae91906105b0565b565b50805460008255906000526020600020908101906105ce91906105d1565b50565b5b808211156105ea5760008160009055506001016105d2565b5090565b6000819050919050565b610601816105ee565b82525050565b600060208201905061061c60008301846105f8565b92915050565b600080fd5b610630816105ee565b811461063b57600080fd5b50565b60008135905061064d81610627565b92915050565b60006020828403121561066957610668610622565b5b60006106778482850161063e565b91505092915050565b600073ffffffffffffffffffffffffffffffffffffffff82169050919050565b60006106ab82610680565b9050919050565b6106bb816106a0565b82525050565b60006020820190506106d660008301846106b2565b92915050565b60006106e782610680565b9050919050565b6106f7816106dc565b82525050565b600060208201905061071260008301846106ee565b92915050565b600081519050919050565b600082825260208201905092915050565b6000819050602082019050919050565b61074d816106a0565b82525050565b600061075f8383610744565b60208301905092915050565b6000602082019050919050565b600061078382610718565b61078d8185610723565b935061079883610734565b8060005b838110156107c95781516107b08882610753565b97506107bb8361076b565b92505060018101905061079c565b5085935050505092915050565b600060208201905081810360008301526107f08184610778565b905092915050565b7f4e487b7100000000000000000000000000000000000000000000000000000000600052601260045260246000fd5b6000610832826105ee565b915061083d836105ee565b92508261084d5761084c6107f8565b5b828204905092915050565b600060408201905061086d60008301856105f8565b61087a60208301846105f8565b9392505050565b6000819050919050565b61089c610897826105ee565b610881565b82525050565b600081549050919050565b600081905092915050565b60008190508160005260206000209050919050565b6108d6816106a0565b82525050565b60006108e883836108cd565b60208301905092915050565b60008160001c9050919050565b600073ffffffffffffffffffffffffffffffffffffffff82169050919050565b600061093461092f836108f4565b610901565b9050919050565b60006109478254610921565b9050919050565b6000600182019050919050565b6000610966826108a2565b61097081856108ad565b935061097b836108b8565b8060005b838110156109b3576109908261093b565b61099a88826108dc565b97506109a58361094e565b92505060018101905061097f565b5085935050505092915050565b60006109cc828661088b565b6020820191506109dc828561088b565b6020820191506109ec828461095b565b9150819050949350505050565b6000610a04826105ee565b9150610a0f836105ee565b925082610a1f57610a1e6107f8565b5b828206905092915050565b7f4e487b7100000000000000000000000000000000000000000000000000000000600052603260045260246000fdfea2646970667358221220bdcf968866ea442054685624a330765b6f5ba1f9333235a6b54da9ef49553bec64736f6c634300080e0033",
  "immutableReferences": {},
  "source": "// SPDX-License-Identifier: MIT\n\npragma solidity ^0.8.14;\n\ncontract Lottery {\n  // Left contract balance % of the contract balance will be sent to this address\n  address payable public burnAddress = payable(0x0000000000000000000000000000000000000000);\n  // Number of tickets per round\n  uint256 public ticketsPerRound = 3;\n  // Ticket price (in Weis)\n  uint256 public ticketPrice = 0.001 * 10e8 * 10e8;\n  address[] public participantAddresses;\n\n  error Forbidden();\n  error WrongTicketPrice(uint256 expectedRole, uint256 actualRole);\n\n  function buyTicket() external payable {\n    if (msg.value != ticketPrice) {\n      revert WrongTicketPrice(ticketPrice, msg.value);\n    }\n\n    participantAddresses.push(msg.sender);\n\n    if (participantAddresses.length >= ticketsPerRound) {\n      payWinner();\n    }\n  }\n\n  function getBalance() external view returns (uint256) {\n    return address(this).balance;\n  }\n\n  function getParticipantAddresses() external view returns (address[] memory) {\n    return participantAddresses;\n  }\n\n  function getWinnableBalance() public view returns (uint256) {\n    return address(this).balance / 2;\n  }\n\n  function payWinner() public {\n    if (msg.sender != address(this)) {\n      revert Forbidden();\n    }\n\n    uint256 winnableBalance = getWinnableBalance();\n    address payable winnerAddress = getWinner();\n\n    winnerAddress.transfer(winnableBalance);\n\n    burnLeftBalance();\n  }\n\n  function getWinner() internal view returns (address payable winnerAddress) {\n    uint256 unsafeRandomNumber = uint256(\n      keccak256(abi.encodePacked(block.difficulty, block.timestamp, participantAddresses))\n    );\n    uint256 winnerIndex = unsafeRandomNumber % participantAddresses.length;\n    winnerAddress = payable(participantAddresses[winnerIndex]);\n  }\n\n  function burnLeftBalance() internal {\n    uint256 leftBalance = address(this).balance;\n\n    burnAddress.transfer(leftBalance);\n\n    reset();\n  }\n\n  function reset() internal {\n    delete participantAddresses;\n  }\n}\n",
  "sourcePath": "C:\\Users\\ivang\\Workspace\\ivangabriele\\lunattery\\contracts\\Lottery.sol",
  "compiler": {
    "name": "solc",
    "version": "0.8.14+commit.80d49f37.Emscripten.clang"
  },
  "schemaVersion": "3.4.7",
  "updatedAt": "2022-05-27T12:09:03.751Z",
  "networkType": "ethereum",
  "devdoc": {
    "kind": "dev",
    "methods": {},
    "version": 1
  },
  "userdoc": {
    "kind": "user",
    "methods": {},
    "version": 1
  }
}